{
  "address": "0xe7f1725E7734CE288F8367e1Bb143E90bb3F0512",
  "abi": [
    {
      "inputs": [
        {
          "internalType": "address",
          "name": "priceFeedAddress",
          "type": "address"
        }
      ],
      "stateMutability": "nonpayable",
      "type": "constructor"
    },
    {
      "inputs": [],
      "name": "FundMe__NotOwner",
      "type": "error"
    },
    {
      "stateMutability": "payable",
      "type": "fallback"
    },
    {
      "inputs": [
        {
          "internalType": "address",
          "name": "",
          "type": "address"
        }
      ],
      "name": "addressToAmount",
      "outputs": [
        {
          "internalType": "uint256",
          "name": "",
          "type": "uint256"
        }
      ],
      "stateMutability": "view",
      "type": "function"
    },
    {
      "inputs": [],
      "name": "cheapWithdraw",
      "outputs": [],
      "stateMutability": "payable",
      "type": "function"
    },
    {
      "inputs": [],
      "name": "fund",
      "outputs": [],
      "stateMutability": "payable",
      "type": "function"
    },
    {
      "inputs": [
        {
          "internalType": "uint256",
          "name": "",
          "type": "uint256"
        }
      ],
      "name": "funders",
      "outputs": [
        {
          "internalType": "address",
          "name": "",
          "type": "address"
        }
      ],
      "stateMutability": "view",
      "type": "function"
    },
    {
      "inputs": [],
      "name": "getPriceFeed",
      "outputs": [
        {
          "internalType": "contract AggregatorV3Interface",
          "name": "",
          "type": "address"
        }
      ],
      "stateMutability": "view",
      "type": "function"
    },
    {
      "inputs": [],
      "name": "minMoney",
      "outputs": [
        {
          "internalType": "uint256",
          "name": "",
          "type": "uint256"
        }
      ],
      "stateMutability": "view",
      "type": "function"
    },
    {
      "inputs": [],
      "name": "owner",
      "outputs": [
        {
          "internalType": "address",
          "name": "",
          "type": "address"
        }
      ],
      "stateMutability": "view",
      "type": "function"
    },
    {
      "inputs": [],
      "name": "priceFeed",
      "outputs": [
        {
          "internalType": "contract AggregatorV3Interface",
          "name": "",
          "type": "address"
        }
      ],
      "stateMutability": "view",
      "type": "function"
    },
    {
      "inputs": [],
      "name": "withdraw",
      "outputs": [],
      "stateMutability": "nonpayable",
      "type": "function"
    },
    {
      "stateMutability": "payable",
      "type": "receive"
    }
  ],
  "transactionHash": "0xae28cb57eea295e1f33c4b3085d6ee3828372a01956663afb8fd9da4d45fb1db",
  "args": [
    "0x5FbDB2315678afecb367f032d93F642f64180aa3"
  ],
  "numDeployments": 1,
  "solcInputHash": "cd72e707a5e02d8389f0b4313da4275d",
  "bytecode": "0x60a06040523480156200001157600080fd5b50604051620011053803806200110583398181016040528101906200003791906200011d565b3373ffffffffffffffffffffffffffffffffffffffff1660808173ffffffffffffffffffffffffffffffffffffffff168152505080600260006101000a81548173ffffffffffffffffffffffffffffffffffffffff021916908373ffffffffffffffffffffffffffffffffffffffff160217905550506200014f565b600080fd5b600073ffffffffffffffffffffffffffffffffffffffff82169050919050565b6000620000e582620000b8565b9050919050565b620000f781620000d8565b81146200010357600080fd5b50565b6000815190506200011781620000ec565b92915050565b600060208284031215620001365762000135620000b3565b5b6000620001468482850162000106565b91505092915050565b608051610f85620001806000396000818161032d01528181610506015281816105cd01526108160152610f856000f3fe60806040526004361061008a5760003560e01c80638da5cb5b116100595780638da5cb5b1461012c5780639e87a5cd14610157578063aa19296414610182578063b60d4288146101ad578063dc0d3dff146101b757610099565b8063206ddccd146100a35780633c7e7d28146100ad5780633ccfd60b146100ea578063741bef1a1461010157610099565b36610099576100976101f4565b005b6100a16101f4565b005b6100ab610314565b005b3480156100b957600080fd5b506100d460048036038101906100cf9190610a7f565b61059c565b6040516100e19190610ac5565b60405180910390f35b3480156100f657600080fd5b506100ff6105b4565b005b34801561010d57600080fd5b506101166107ee565b6040516101239190610b3f565b60405180910390f35b34801561013857600080fd5b50610141610814565b60405161014e9190610b69565b60405180910390f35b34801561016357600080fd5b5061016c610838565b6040516101799190610b3f565b60405180910390f35b34801561018e57600080fd5b50610197610862565b6040516101a49190610ac5565b60405180910390f35b6101b56101f4565b005b3480156101c357600080fd5b506101de60048036038101906101d99190610bb0565b61086f565b6040516101eb9190610b69565b60405180910390f35b6802b5e3af16b1880000610233600260009054906101000a900473ffffffffffffffffffffffffffffffffffffffff16346108ae90919063ffffffff16565b101561026b576040517f579610db00000000000000000000000000000000000000000000000000000000815260040160405180910390fd5b6000339080600181540180825580915050600190039060005260206000200160009091909190916101000a81548173ffffffffffffffffffffffffffffffffffffffff021916908373ffffffffffffffffffffffffffffffffffffffff16021790555034600160003373ffffffffffffffffffffffffffffffffffffffff1673ffffffffffffffffffffffffffffffffffffffff16815260200190815260200160002081905550565b3373ffffffffffffffffffffffffffffffffffffffff167f000000000000000000000000000000000000000000000000000000000000000073ffffffffffffffffffffffffffffffffffffffff1614610399576040517f579610db00000000000000000000000000000000000000000000000000000000815260040160405180910390fd5b60008080548060200260200160405190810160405280929190818152602001828054801561041c57602002820191906000526020600020905b8160009054906101000a900473ffffffffffffffffffffffffffffffffffffffff1673ffffffffffffffffffffffffffffffffffffffff16815260200190600101908083116103d2575b5050505050905060005b81518110156104a157600082828151811061044457610443610bdd565b5b602002602001015190506000600160008373ffffffffffffffffffffffffffffffffffffffff1673ffffffffffffffffffffffffffffffffffffffff16815260200190815260200160002081905550508080600101915050610426565b50600067ffffffffffffffff8111156104bd576104bc610c0c565b5b6040519080825280602002602001820160405280156104eb5781602001602082028036833780820191505090505b5060009080519060200190610501929190610975565b5060007f000000000000000000000000000000000000000000000000000000000000000073ffffffffffffffffffffffffffffffffffffffff164760405161054890610c6c565b60006040518083038185875af1925050503d8060008114610585576040519150601f19603f3d011682016040523d82523d6000602084013e61058a565b606091505b505090508061059857600080fd5b5050565b60016020528060005260406000206000915090505481565b3373ffffffffffffffffffffffffffffffffffffffff167f000000000000000000000000000000000000000000000000000000000000000073ffffffffffffffffffffffffffffffffffffffff1614610639576040517f579610db00000000000000000000000000000000000000000000000000000000815260040160405180910390fd5b60005b6000805490508110156106de57600080828154811061065e5761065d610bdd565b5b9060005260206000200160009054906101000a900473ffffffffffffffffffffffffffffffffffffffff1690506000600160008373ffffffffffffffffffffffffffffffffffffffff1673ffffffffffffffffffffffffffffffffffffffff1681526020019081526020016000208190555050808060010191505061063c565b50600067ffffffffffffffff8111156106fa576106f9610c0c565b5b6040519080825280602002602001820160405280156107285781602001602082028036833780820191505090505b506000908051906020019061073e929190610975565b5060003373ffffffffffffffffffffffffffffffffffffffff164760405161076590610c6c565b60006040518083038185875af1925050503d80600081146107a2576040519150601f19603f3d011682016040523d82523d6000602084013e6107a7565b606091505b50509050806107eb576040517f08c379a00000000000000000000000000000000000000000000000000000000081526004016107e290610cde565b60405180910390fd5b50565b600260009054906101000a900473ffffffffffffffffffffffffffffffffffffffff1681565b7f000000000000000000000000000000000000000000000000000000000000000081565b6000600260009054906101000a900473ffffffffffffffffffffffffffffffffffffffff16905090565b6802b5e3af16b188000081565b6000818154811061087f57600080fd5b906000526020600020016000915054906101000a900473ffffffffffffffffffffffffffffffffffffffff1681565b6000806108ba836108e4565b9050670de0b6b3a764000081856108d19190610d2d565b6108db9190610d9e565b91505092915050565b6000808273ffffffffffffffffffffffffffffffffffffffff1663feaf968c6040518163ffffffff1660e01b815260040160a060405180830381865afa158015610932573d6000803e3d6000fd5b505050506040513d601f19601f820116820180604052508101906109569190610e5c565b5050509150506402540be4008161096d9190610ed7565b915050919050565b8280548282559060005260206000209081019282156109ee579160200282015b828111156109ed5782518260006101000a81548173ffffffffffffffffffffffffffffffffffffffff021916908373ffffffffffffffffffffffffffffffffffffffff16021790555091602001919060010190610995565b5b5090506109fb91906109ff565b5090565b5b80821115610a18576000816000905550600101610a00565b5090565b600080fd5b600073ffffffffffffffffffffffffffffffffffffffff82169050919050565b6000610a4c82610a21565b9050919050565b610a5c81610a41565b8114610a6757600080fd5b50565b600081359050610a7981610a53565b92915050565b600060208284031215610a9557610a94610a1c565b5b6000610aa384828501610a6a565b91505092915050565b6000819050919050565b610abf81610aac565b82525050565b6000602082019050610ada6000830184610ab6565b92915050565b6000819050919050565b6000610b05610b00610afb84610a21565b610ae0565b610a21565b9050919050565b6000610b1782610aea565b9050919050565b6000610b2982610b0c565b9050919050565b610b3981610b1e565b82525050565b6000602082019050610b546000830184610b30565b92915050565b610b6381610a41565b82525050565b6000602082019050610b7e6000830184610b5a565b92915050565b610b8d81610aac565b8114610b9857600080fd5b50565b600081359050610baa81610b84565b92915050565b600060208284031215610bc657610bc5610a1c565b5b6000610bd484828501610b9b565b91505092915050565b7f4e487b7100000000000000000000000000000000000000000000000000000000600052603260045260246000fd5b7f4e487b7100000000000000000000000000000000000000000000000000000000600052604160045260246000fd5b600081905092915050565b50565b6000610c56600083610c3b565b9150610c6182610c46565b600082019050919050565b6000610c7782610c49565b9150819050919050565b600082825260208201905092915050565b7f6572726f72000000000000000000000000000000000000000000000000000000600082015250565b6000610cc8600583610c81565b9150610cd382610c92565b602082019050919050565b60006020820190508181036000830152610cf781610cbb565b9050919050565b7f4e487b7100000000000000000000000000000000000000000000000000000000600052601160045260246000fd5b6000610d3882610aac565b9150610d4383610aac565b9250828202610d5181610aac565b91508282048414831517610d6857610d67610cfe565b5b5092915050565b7f4e487b7100000000000000000000000000000000000000000000000000000000600052601260045260246000fd5b6000610da982610aac565b9150610db483610aac565b925082610dc457610dc3610d6f565b5b828204905092915050565b600069ffffffffffffffffffff82169050919050565b610dee81610dcf565b8114610df957600080fd5b50565b600081519050610e0b81610de5565b92915050565b6000819050919050565b610e2481610e11565b8114610e2f57600080fd5b50565b600081519050610e4181610e1b565b92915050565b600081519050610e5681610b84565b92915050565b600080600080600060a08688031215610e7857610e77610a1c565b5b6000610e8688828901610dfc565b9550506020610e9788828901610e32565b9450506040610ea888828901610e47565b9350506060610eb988828901610e47565b9250506080610eca88828901610dfc565b9150509295509295909350565b6000610ee282610e11565b9150610eed83610e11565b9250828202610efb81610e11565b91507f80000000000000000000000000000000000000000000000000000000000000008414600084121615610f3357610f32610cfe565b5b8282058414831517610f4857610f47610cfe565b5b509291505056fea26469706673582212202a6ad021de4b4451c733d46eadaee663f9ce725c70cc4ec2bac828a397a361c864736f6c63430008180033",
  "devdoc": {
    "kind": "dev",
    "methods": {},
    "version": 1
  },
  "userdoc": {
    "kind": "user",
    "methods": {},
    "version": 1
  },
  "storageLayout": {
    "storage": [
      {
        "astId": 62,
        "contract": "contracts/FundMe.sol:FundMe",
        "label": "funders",
        "offset": 0,
        "slot": "0",
        "type": "t_array(t_address)dyn_storage"
      },
      {
        "astId": 66,
        "contract": "contracts/FundMe.sol:FundMe",
        "label": "addressToAmount",
        "offset": 0,
        "slot": "1",
        "type": "t_mapping(t_address,t_uint256)"
      },
      {
        "astId": 71,
        "contract": "contracts/FundMe.sol:FundMe",
        "label": "priceFeed",
        "offset": 0,
        "slot": "2",
        "type": "t_contract(AggregatorV3Interface)45"
      }
    ],
    "types": {
      "t_address": {
        "encoding": "inplace",
        "label": "address",
        "numberOfBytes": "20"
      },
      "t_array(t_address)dyn_storage": {
        "base": "t_address",
        "encoding": "dynamic_array",
        "label": "address[]",
        "numberOfBytes": "32"
      },
      "t_contract(AggregatorV3Interface)45": {
        "encoding": "inplace",
        "label": "contract AggregatorV3Interface",
        "numberOfBytes": "20"
      },
      "t_mapping(t_address,t_uint256)": {
        "encoding": "mapping",
        "key": "t_address",
        "label": "mapping(address => uint256)",
        "numberOfBytes": "32",
        "value": "t_uint256"
      },
      "t_uint256": {
        "encoding": "inplace",
        "label": "uint256",
        "numberOfBytes": "32"
      }
    }
  }
}