{
  "address": "0x9FB55EB6CFD72a6A731Bc7191DE7B50198210649",
  "abi": [
    {
      "inputs": [
        {
          "internalType": "address",
          "name": "priceFeedAddress",
          "type": "address"
        }
      ],
      "stateMutability": "nonpayable",
      "type": "constructor"
    },
    {
      "inputs": [],
      "name": "NotOwner",
      "type": "error"
    },
    {
      "stateMutability": "payable",
      "type": "fallback"
    },
    {
      "inputs": [
        {
          "internalType": "address",
          "name": "",
          "type": "address"
        }
      ],
      "name": "addressToAmount",
      "outputs": [
        {
          "internalType": "uint256",
          "name": "",
          "type": "uint256"
        }
      ],
      "stateMutability": "view",
      "type": "function"
    },
    {
      "inputs": [],
      "name": "fund",
      "outputs": [],
      "stateMutability": "payable",
      "type": "function"
    },
    {
      "inputs": [
        {
          "internalType": "uint256",
          "name": "",
          "type": "uint256"
        }
      ],
      "name": "funders",
      "outputs": [
        {
          "internalType": "address",
          "name": "",
          "type": "address"
        }
      ],
      "stateMutability": "view",
      "type": "function"
    },
    {
      "inputs": [],
      "name": "minMoney",
      "outputs": [
        {
          "internalType": "uint256",
          "name": "",
          "type": "uint256"
        }
      ],
      "stateMutability": "view",
      "type": "function"
    },
    {
      "inputs": [],
      "name": "owner",
      "outputs": [
        {
          "internalType": "address",
          "name": "",
          "type": "address"
        }
      ],
      "stateMutability": "view",
      "type": "function"
    },
    {
      "inputs": [],
      "name": "priceFeed",
      "outputs": [
        {
          "internalType": "contract AggregatorV3Interface",
          "name": "",
          "type": "address"
        }
      ],
      "stateMutability": "view",
      "type": "function"
    },
    {
      "inputs": [],
      "name": "withdraw",
      "outputs": [],
      "stateMutability": "nonpayable",
      "type": "function"
    },
    {
      "stateMutability": "payable",
      "type": "receive"
    }
  ],
  "transactionHash": "0xc8260a82a2d34133b6853d53dd8345ce7b5a66fd7b0f4933a207eb62b7b2e30f",
  "args": [
    "0x694AA1769357215DE4FAC081bf1f309aDC325306"
  ],
  "numDeployments": 1,
  "solcInputHash": "b8cfd7956a6f34fa3eb9a5ab8f36573a",
  "bytecode": "0x60a060405234801561001057600080fd5b50604051610de7380380610de783398181016040528101906100329190610110565b3373ffffffffffffffffffffffffffffffffffffffff1660808173ffffffffffffffffffffffffffffffffffffffff168152505080600260006101000a81548173ffffffffffffffffffffffffffffffffffffffff021916908373ffffffffffffffffffffffffffffffffffffffff1602179055505061013d565b600080fd5b600073ffffffffffffffffffffffffffffffffffffffff82169050919050565b60006100dd826100b2565b9050919050565b6100ed816100d2565b81146100f857600080fd5b50565b60008151905061010a816100e4565b92915050565b600060208284031215610126576101256100ad565b5b6000610134848285016100fb565b91505092915050565b608051610c8861015f600039600081816102fa01526105430152610c886000f3fe6080604052600436106100745760003560e01c80638da5cb5b1161004e5780638da5cb5b1461010c578063aa19296414610137578063b60d428814610162578063dc0d3dff1461016c57610083565b80633c7e7d281461008d5780633ccfd60b146100ca578063741bef1a146100e157610083565b36610083576100816101a9565b005b61008b6101a9565b005b34801561009957600080fd5b506100b460048036038101906100af9190610782565b6102c9565b6040516100c191906107c8565b60405180910390f35b3480156100d657600080fd5b506100df6102e1565b005b3480156100ed57600080fd5b506100f661051b565b6040516101039190610842565b60405180910390f35b34801561011857600080fd5b50610121610541565b60405161012e919061086c565b60405180910390f35b34801561014357600080fd5b5061014c610565565b60405161015991906107c8565b60405180910390f35b61016a6101a9565b005b34801561017857600080fd5b50610193600480360381019061018e91906108b3565b610572565b6040516101a0919061086c565b60405180910390f35b6802b5e3af16b18800006101e8600260009054906101000a900473ffffffffffffffffffffffffffffffffffffffff16346105b190919063ffffffff16565b1015610220576040517f30cd747100000000000000000000000000000000000000000000000000000000815260040160405180910390fd5b6000339080600181540180825580915050600190039060005260206000200160009091909190916101000a81548173ffffffffffffffffffffffffffffffffffffffff021916908373ffffffffffffffffffffffffffffffffffffffff16021790555034600160003373ffffffffffffffffffffffffffffffffffffffff1673ffffffffffffffffffffffffffffffffffffffff16815260200190815260200160002081905550565b60016020528060005260406000206000915090505481565b3373ffffffffffffffffffffffffffffffffffffffff167f000000000000000000000000000000000000000000000000000000000000000073ffffffffffffffffffffffffffffffffffffffff1614610366576040517f30cd747100000000000000000000000000000000000000000000000000000000815260040160405180910390fd5b60005b60008054905081101561040b57600080828154811061038b5761038a6108e0565b5b9060005260206000200160009054906101000a900473ffffffffffffffffffffffffffffffffffffffff1690506000600160008373ffffffffffffffffffffffffffffffffffffffff1673ffffffffffffffffffffffffffffffffffffffff16815260200190815260200160002081905550508080600101915050610369565b50600067ffffffffffffffff8111156104275761042661090f565b5b6040519080825280602002602001820160405280156104555781602001602082028036833780820191505090505b506000908051906020019061046b929190610678565b5060003373ffffffffffffffffffffffffffffffffffffffff16476040516104929061096f565b60006040518083038185875af1925050503d80600081146104cf576040519150601f19603f3d011682016040523d82523d6000602084013e6104d4565b606091505b5050905080610518576040517f08c379a000000000000000000000000000000000000000000000000000000000815260040161050f906109e1565b60405180910390fd5b50565b600260009054906101000a900473ffffffffffffffffffffffffffffffffffffffff1681565b7f000000000000000000000000000000000000000000000000000000000000000081565b6802b5e3af16b188000081565b6000818154811061058257600080fd5b906000526020600020016000915054906101000a900473ffffffffffffffffffffffffffffffffffffffff1681565b6000806105bd836105e7565b9050670de0b6b3a764000081856105d49190610a30565b6105de9190610aa1565b91505092915050565b6000808273ffffffffffffffffffffffffffffffffffffffff1663feaf968c6040518163ffffffff1660e01b815260040160a060405180830381865afa158015610635573d6000803e3d6000fd5b505050506040513d601f19601f820116820180604052508101906106599190610b5f565b5050509150506402540be400816106709190610bda565b915050919050565b8280548282559060005260206000209081019282156106f1579160200282015b828111156106f05782518260006101000a81548173ffffffffffffffffffffffffffffffffffffffff021916908373ffffffffffffffffffffffffffffffffffffffff16021790555091602001919060010190610698565b5b5090506106fe9190610702565b5090565b5b8082111561071b576000816000905550600101610703565b5090565b600080fd5b600073ffffffffffffffffffffffffffffffffffffffff82169050919050565b600061074f82610724565b9050919050565b61075f81610744565b811461076a57600080fd5b50565b60008135905061077c81610756565b92915050565b6000602082840312156107985761079761071f565b5b60006107a68482850161076d565b91505092915050565b6000819050919050565b6107c2816107af565b82525050565b60006020820190506107dd60008301846107b9565b92915050565b6000819050919050565b60006108086108036107fe84610724565b6107e3565b610724565b9050919050565b600061081a826107ed565b9050919050565b600061082c8261080f565b9050919050565b61083c81610821565b82525050565b60006020820190506108576000830184610833565b92915050565b61086681610744565b82525050565b6000602082019050610881600083018461085d565b92915050565b610890816107af565b811461089b57600080fd5b50565b6000813590506108ad81610887565b92915050565b6000602082840312156108c9576108c861071f565b5b60006108d78482850161089e565b91505092915050565b7f4e487b7100000000000000000000000000000000000000000000000000000000600052603260045260246000fd5b7f4e487b7100000000000000000000000000000000000000000000000000000000600052604160045260246000fd5b600081905092915050565b50565b600061095960008361093e565b915061096482610949565b600082019050919050565b600061097a8261094c565b9150819050919050565b600082825260208201905092915050565b7f6572726f72000000000000000000000000000000000000000000000000000000600082015250565b60006109cb600583610984565b91506109d682610995565b602082019050919050565b600060208201905081810360008301526109fa816109be565b9050919050565b7f4e487b7100000000000000000000000000000000000000000000000000000000600052601160045260246000fd5b6000610a3b826107af565b9150610a46836107af565b9250828202610a54816107af565b91508282048414831517610a6b57610a6a610a01565b5b5092915050565b7f4e487b7100000000000000000000000000000000000000000000000000000000600052601260045260246000fd5b6000610aac826107af565b9150610ab7836107af565b925082610ac757610ac6610a72565b5b828204905092915050565b600069ffffffffffffffffffff82169050919050565b610af181610ad2565b8114610afc57600080fd5b50565b600081519050610b0e81610ae8565b92915050565b6000819050919050565b610b2781610b14565b8114610b3257600080fd5b50565b600081519050610b4481610b1e565b92915050565b600081519050610b5981610887565b92915050565b600080600080600060a08688031215610b7b57610b7a61071f565b5b6000610b8988828901610aff565b9550506020610b9a88828901610b35565b9450506040610bab88828901610b4a565b9350506060610bbc88828901610b4a565b9250506080610bcd88828901610aff565b9150509295509295909350565b6000610be582610b14565b9150610bf083610b14565b9250828202610bfe81610b14565b91507f80000000000000000000000000000000000000000000000000000000000000008414600084121615610c3657610c35610a01565b5b8282058414831517610c4b57610c4a610a01565b5b509291505056fea2646970667358221220dd5057b04569d7e614aea2ba97423216dea4e9c0162c609e0bab65c38d68ada464736f6c63430008180033",
  "devdoc": {
    "kind": "dev",
    "methods": {},
    "version": 1
  },
  "userdoc": {
    "kind": "user",
    "methods": {},
    "version": 1
  },
  "storageLayout": {
    "storage": [
      {
        "astId": 62,
        "contract": "contracts/FundMe.sol:FundMe",
        "label": "funders",
        "offset": 0,
        "slot": "0",
        "type": "t_array(t_address)dyn_storage"
      },
      {
        "astId": 66,
        "contract": "contracts/FundMe.sol:FundMe",
        "label": "addressToAmount",
        "offset": 0,
        "slot": "1",
        "type": "t_mapping(t_address,t_uint256)"
      },
      {
        "astId": 71,
        "contract": "contracts/FundMe.sol:FundMe",
        "label": "priceFeed",
        "offset": 0,
        "slot": "2",
        "type": "t_contract(AggregatorV3Interface)45"
      }
    ],
    "types": {
      "t_address": {
        "encoding": "inplace",
        "label": "address",
        "numberOfBytes": "20"
      },
      "t_array(t_address)dyn_storage": {
        "base": "t_address",
        "encoding": "dynamic_array",
        "label": "address[]",
        "numberOfBytes": "32"
      },
      "t_contract(AggregatorV3Interface)45": {
        "encoding": "inplace",
        "label": "contract AggregatorV3Interface",
        "numberOfBytes": "20"
      },
      "t_mapping(t_address,t_uint256)": {
        "encoding": "mapping",
        "key": "t_address",
        "label": "mapping(address => uint256)",
        "numberOfBytes": "32",
        "value": "t_uint256"
      },
      "t_uint256": {
        "encoding": "inplace",
        "label": "uint256",
        "numberOfBytes": "32"
      }
    }
  }
}